:020000022000DC
:106000000000042051C3030091C3030093C30300A5
:1060100095C3030097C3030099C303000000000069
:10602000000000000000000000000000D9C10300D3
:106030009DC3030000000000F9C10300A1C30300D9
:10604000A5C50300A3C30300A3C303005D2B030086
:10605000A3C30300A3C30300C1950300A3C30300AC
:10606000A3C30300A3C30300A3C30300A3C303008C
:10607000A3C30300A3C30300A3C30300A3C303007C
:10608000A3C3030029BF0300A3C30300A3C30300EA
:10609000A3C30300A3C3030081110300A3C3030030
:1060A000A3C30300A3C30300A3C30300A3C303004C
:1060B000A3C30300A3C3030000000000000000000E
:1060C000A3C30300A3C30300A3C3030035C8030095
:1060D000A3C30300A3C30300A3C30300F18402000E
:1060E000A3C30300A3C30300A3C303000000000075
:1060F00000000000A3C3030000000000ADC80300BF
:10610000000000000000000000000000000000008F
:10611000000000000000000000000000000000007F
:10612000000000000000000000000000000000006F
:10613000000000000000000000000000000000005F
:10614000000000000000000000000000000000004F
:10615000000000000000000000000000000000003F
:10616000000000000000000000000000000000002F
:10617000000000000000000000000000000000001F
:10618000000000000000000000000000000000000F
:1061900000000000000000000000000000000000FF
:1061A00000000000000000000000000000000000EF
:1061B00000000000000000000000000000000000DF
:1061C00000000000000000000000000000000000CF
:1061D00000000000000000000000000000000000BF
:1061E00000000000000000000000000000000000AF
:1061F000000000000000000000000000000000009F
:10620000F1EE103A43F08073E1EE103A704700BFB0
:1062100010B5054C237833B9044B13B10448AFF3E0
:1062200000800123237010BD7C630020000000006B
:10623000A4A5040008B5034B1BB103490348AFF301
:10624000008008BD0000000080630020A4A50400B9
:10625000154B002B08BF134B9D46A3F5803A002138
:106260008B460F461348144A121A1CF095F90F4B2F
:10627000002B00D098470E4B002B00D098470020F1
:10628000002104000D000D48002802D00C48AFF397
:1062900000801CF00FF92000290016F0B1F81CF066
:1062A000E3F800BF00000800000004200000000028
:1062B000000000007C630020509F002000000000D0
:1062C0000000000008B5054B01221A7013F0ACFC69
:1062D000034B00F6C410186008BD00BFAC6300207B
:1062E0007865002030B59BB03249334C01A80DF0E1
:1062F000C1FA324901A800220DF076FB30BBDFED78
:10630000307A3048304BC4ED037A4FF07E51B0EE16
:10631000007A00222060616084ED027A226163616C
:10632000DFED2A6A27EE267A9FED296ADFED246ADF
:10633000284BF4EEC67AF1EE10FAD8BFF0EE667A8A
:10634000C7EE276AC3ED006A1BB030BD1822214694
:1063500001A80DF08FFB054601A80DF001FC182DDA
:10636000CDD1184B22689A42C9D1D4ED057A9FED60
:10637000187AF4EEC77AF1EE10FA0FD5124B94EDBD
:10638000027AD4ED037A6361DFED116AB4EEE67A46
:10639000F1EE10FAC4DC9FED107AC5E79FED087AA4
:1063A000F4EEC77AF1EE10FAE8DC94ED027AD4ED5F
:1063B000037AE9E7A48300205C650020D87004001C
:1063C00000007A4454524956000020416F1283491C
:1063D0000AD7233C046000206F12034AF8B5164F19
:1063E000164C1748174D184E0CF05AFC38464FF40F
:1063F00080710BF0E1FC2246144938461BF0F8FF8F
:1064000028460BF07FF82246114928461BF0F0FF82
:10641000104D30460AF0DCFF22460F4930461BF093
:10642000E7FF0E49284613F00DF9224628460C498D
:10643000BDE8F8401BF0DCBF68640020006000206D
:106440008865002020640020B06300204D1E0300FA
:1064500081790200C8650020597902003082040069
:10646000F99703002DE9F04F324B2DED028B1B788D
:1064700008EE100A89B04BB918EE101A2E4812F027
:10648000C5FF09B0BDEC028BBDE8F08F18EE101A05
:1064900005A813F0F1F82949DFF8A4A0DFF8A480DB
:1064A00005A813F077FA014602A813F0E5F805A84D
:1064B00013F0A2F9029BDDF810900193002502E091
:1064C0000135142D2FD01FFA85FB594650460AF08E
:1064D00037FE0028F4D0594640460BF069FC0028EE
:1064E000EED0594650460AF043FE00B308F07EFE57
:1064F000C61EB9F1000FE3D00095019D4F46002460
:10650000BE42334605EB040228BF3B46594634449D
:1065100040460BF0D5FB4C45A7EB0607F0D3009D9A
:106520000135142DCFD102A813F066F9A4E7142683
:10653000DFE700BFAD630020E46500209081040028
:10654000687A00206864002030B593B03349344C39
:10655000684613F077F8694603A813F08DF83149BF
:1065600003A813F017FA304913F014FA2F4913F067
:1065700011FA2F4913F00EFA2E4913F00BFA2E4997
:1065800013F008FA94ED010A0546042106A813F059
:10659000F5F806A9284613F0D1F9284913F0FAF9BD
:1065A00094ED020A0546022109A813F0E7F809A9AB
:1065B000284613F0C3F9224913F0ECF994ED030ACD
:1065C000054600210CA813F0D9F80CA9284613F0B1
:1065D000B5F91C4913F0DEF994ED050A05460121D1
:1065E0000FA813F0CBF80FA9284613F0A7F9FFF76F
:1065F00039FF0FA813F000F90CA813F0FDF809A853
:1066000013F0FAF806A813F0F7F803A813F0F4F85B
:10661000684613F0F1F813B030BD00BFE870040015
:106620005C650020F870040000710400087104002B
:1066300014710400D4650020207104002871040046
:10664000307104003871040010B52DED028B8CB050
:106650002E49684612F0F6FF012016F02BFE0C20A2
:1066600016F022FE142016F055FE07EE900A9FED5C
:10667000280A2849B8EE678A06A828EE008A12F090
:10668000E1FFDFED257A9FED257A78EE677A0A2221
:1066900067EE877A03A8FDEEE77A17EE901A642971
:1066A000A8BF642121EAE17113F034F803A906A818
:1066B00013F044F91A4913F06DF9B0EE480A044694
:1066C000022109A813F05AF809A9204613F036F957
:1066D000144913F05FF90146684613F0BFF809A8A2
:1066E00013F08AF803A813F087F806A813F084F8CB
:1066F0000D49684613F0D6F86846FFF7B3FE6846C2
:1067000013F07AF80CB0BDEC028B10BD40710400A0
:10671000CE74E63A4871040033335340E638DE4223
:10672000507104005C710400607104002DE9F041B7
:106730004F48504F504EDFF85C8186B00CF056F950
:106740000021162016F014FE0021172016F010FE6E
:10675000052013F075FA4949684612F073FF69463F
:1067600003A812F089FF162016F0A4FE014603A824
:1067700013F078F9424913F00DF90446172016F08A
:1067800099FE0146204613F06DF93E4913F002F9D7
:10679000FFF768FE03A813F02FF8684613F02CF8F3
:1067A0000121162016F0E4FD0121172016F0E0FD6E
:1067B000354903A812F046FF03A8FFF753FE03A8CC
:1067C00013F01AF8002416E013F0E4F8414613F031
:1067D000E1F82E4913F0DEF8FFF744FE03A813F0AA
:1067E0000BF8684613F008F801344FF47A7013F090
:1067F00027FA0A2C1FD004F0010585F001011620AC
:1068000016F03AFE2946172016F036FE394668463D
:1068100012F018FF694603A812F02EFF314603A8B4
:10682000002DD1D0194903A813F0B4F8414613F054
:10683000B1F83146CEE70021162016F099FD00216F
:10684000172016F095FD1722162109480CF0C4F800
:1068500007480CF065F80E4903A812F0F3FE03A8F0
:10686000FFF700FE03A812F0C7FF06B0BDE8F081F5
:10687000E8820020F07104002C7204006C710400A6
:106880008C71040094710400B4710400207204003F
:10689000007204002472040030B53F488DB001221C
:1068A0002A2105460CF0AEF8044601E00BF0F8FF93
:1068B00028460BF0DDFF03462846002BF6D1012CBD
:1068C00002D018460DB030BD2246334933480CF093
:1068D00049FC09ACA0B93249204612F0B3FE20466B
:1068E000FFF7C0FD204612F087FF2C480CF054FB48
:1068F0000A2013F0A5F929480CF088FB00283ED0A7
:10690000052126480CF00CFB072124480CF092FAD4
:10691000002122480CF06AFA002120480CF0ACFA61
:10692000204A2149002313700B7013F07DF91F4B8F
:106930001F49186006A812F085FE06A903A812F0E8
:106940009BFE16480CF0DAF910220146204612F0A0
:10695000ADFE214603A812F0F1FF164913F01AF814
:10696000FFF780FD204612F047FF03A812F044FF16
:1069700006A812F041FF012318460DB030BD0E49A4
:106980000190204612F05EFE2046FFF76BFD204688
:1069900012F032FF019B94E7E88200208865002016
:1069A00034720400A4650020746500208065002016
:1069B000A0720400B8730400787204002DE9F04F4F
:1069C00089B08D4905A812F03DFE05A8FFF74AFDE4
:1069D00005A812F011FF894B4FF0000B43F0010A9C
:1069E000CDF804B04FF002085FFA88F7A7F1090369
:1069F000012B40F29480122F00F09180804C0226EF
:106A00000BE04946404616F0B3FC4946304616F0C6
:106A1000AFFC242D00F081800136F5B2BD42F8D0E4
:106A2000A5F10903012BF7D9122DF5D0022140461B
:106A300016F09EFC0221304616F09AFC4FF4486096
:106A4000D047404616F036FD81460028D9D0304662
:106A500016F030FD81460028D3D00021404616F0C4
:106A600087FC0021304616F083FC20460BF0BEFF69
:106A70002A46394620460BF0AFFF20460BF050FF68
:106A800001222A2120460BF0BDFF0BF1010B0090E3
:106A900001E00BF005FF20460BF0EAFE034620461E
:106AA000002BF6D1012218210BF0ACFF814601E04A
:106AB0000BF0F6FE20460BF0DBFE03462046002BD3
:106AC000F6D1B9F1010F2DD14E4902A812F0BAFD4D
:106AD00002A905A812F0D0FD394605A812F08AFFD8
:106AE000494912F057FF019B29460133019312F0E7
:106AF00081FF009B012B45D0444912F04BFF4449D4
:106B000012F048FFFFF7AEFC05A812F075FE02A8D0
:106B100012F072FE242D7FF47FAF242F37D008F1BE
:106B2000010861E7012219210BF06CFF814601E0A9
:106B30000BF0B6FE20460BF09BFE03462046002BD2
:106B4000F6D1B9F1010FBFD0009B012B7FF461AFEB
:106B50002C4902A812F076FD02A905A812F08CFDBE
:106B6000394605A812F046FF274912F013FF2946BF
:106B700012F040FF274912F00DFF019B234901331A
:106B80000193BDE7234912F005FF2149B8E71C48EE
:106B90000BF02CFF1A48172216210BF01DFF184886
:106BA0000BF0BEFE019CCCB11B4902A812F04AFDBD
:106BB00002A905A812F060FD214605A812F052FFB7
:106BC000164912F0E7FEFFF74DFC05A812F014FE7F
:106BD00002A812F011FE09B0BDE8F08F104902A81A
:106BE00012F030FD02A905A812F046FD594605A88D
:106BF00012F038FF0B49E4E7C8720400C0770400C4
:106C0000E8820020BC730400D073040030820400CA
:106C1000BC720400D87304000473040014730400ED
:106C2000507304005C7304002DE9F0438BB05049AD
:106C3000504EDFF87081DFF8709104A812F002FD69
:106C400004A907A812F018FD162107A812F00AFFE0
:106C5000494912F09FFE172112F004FF474912F034
:106C600099FEFFF7FFFB07A812F0C6FD04A812F07B
:106C7000C3FD012400270122214630460BF0C2FE4D
:106C8000054601E00BF00CFE30460BF0F1FD03462B
:106C90003046002BF6D1012D33D101372A2CFFB21B
:106CA0003FD0A4F11803012B5FD96A2C37D01C2CDC
:106CB00033D0334D442C2ED0392C2AD0772C08BF1A
:106CC0004D46414601A812F0BDFC01A907A812F0EB
:106CD000D3FC10220DEB0200214612F0E7FC04A9C0
:106CE00007A812F02BFE294612F054FEFFF7BAFB5C
:106CF00004A812F081FD07A812F07EFD01A812F091
:106D00007BFD0134E4B27F2CB5D167B10BB0BDE897
:106D1000F0831C4DD5E71C4DD3E71C4DD1E71C4D2E
:106D2000CFE71C4DCDE72A2112480BF0ABFE1148EE
:106D30000BF010FF1849044604A812F083FC04A9C4
:106D400007A812F099FC214607A812F053FE134938
:106D500012F020FEFFF786FB07A812F04DFD04A8F5
:106D600012F04AFD0BB0BDE8F0830D4DA2E700BF65
:106D7000A0740400E8820020D0730400AC74040006
:106D80003082040040740400207404000474040081
:106D9000E473040080740400D4740400FC740400E0
:106DA00090740400C07404006074040030B52DEDCC
:106DB000028B9BB00446B84901A812F043FC21465F
:106DC00001A812F0BBFD0146B44812F01FFB01A858
:106DD00012F012FDB249204612F07CFE38B1B14BE0
:106DE0001B78002B43D11BB0BDEC028B30BDAE49EC
:106DF000204612F06FFE0028F1D1AC4901A812F034
:106E000021FC01A9204612F07BFE054601A812F0E4
:106E1000F3FC002D57D004220DEB0200A36821469D
:106E200012F082FE01A812F0D7FE01A8B0EE408A4F
:106E300012F0E2FCDFED9E7AB4EEE78AF1EE10FA92
:106E4000D1DD9C4C9C499D4884ED018A0CF004FCEA
:106E50009A4901A80CF00EFD9749012201A80CF0F7
:106E6000C3FD002840F07181954901A816E0954BBB
:106E7000904C1B689049236190480CF0EDFB8F49C2
:106E800001A80CF0F7FC8C49012201A80CF0ACFD24
:106E900080B98D4B8D49002201A81A7012F0D2FBE7
:106EA00001A8FFF7DFFA01A812F0A6FC1BB0BDECA9
:106EB000028B30BD2146182201A80CF0E7FB01A887
:106EC0000CF04EFEE5E7824901A812F0BBFB01A9D8
:106ED000204612F015FE054601A812F08DFC002D8B
:106EE00058D17C4901A812F0ADFB01A9204612F04F
:106EF00007FE054601A812F07FFC002D00F08980F6
:106F000004220DEB0200A368214612F00DFE01A839
:106F100012F062FE01A8B0EE408A12F06DFCDFEDC7
:106F20006E7AB4EEE78AF1EE10FA7FF75CAF614B50
:106F3000614993ED027A83ED038AB4EEE77AF1EECC
:106F400010FACCBFDFED657A9FED657A654B5B4843
:106F5000C8BF27EE277AC7EE087AC3ED007A0CF097
:106F60007BFB564901A80CF085FC5349012201A87E
:106F70000CF03AFD002840F002815B4901A812F0B4
:106F800061FB01A8FFF76EFA01A812F035FCFFF7CC
:106F9000DBFA28E7A3682146052201A812F0C4FD08
:106FA00001A812F019FE01A8B0EE408A12F024FCEC
:106FB000DFED497AB4EEE78AF1EE10FA7FF713AF0E
:106FC0003C4C9FED466A94ED037ADFED486A84ED10
:106FD000028AB4EEE77AF1EE10FA28EE068AD8BFFC
:106FE000B0EE667AC8EE077A3E4B33493348C3EDBC
:106FF000007A0CF031FB314901A80CF03BFC2E4922
:10700000012201A80CF0F0FC002840F0A7803849CC
:10701000B4E7384901A812F015FB01A9204612F087
:107020006FFD054601A812F0E7FB002D66D0042293
:107030000DEB0200A368214612F076FD01A812F0C4
:10704000CBFD01A8B0EE408A12F0D6FBDFED227A2C
:10705000B4EEE78AF1EE10FAFFF6C5AEDFED237A63
:10706000B4EEE78AF1EE10FA3FF6BDAE114C1249CC
:10707000124884ED058A0CF0EFFA104901A80CF0D3
:10708000F9FB0D49012201A80CF0AEFC002840F0EC
:1070900098801949E9E600BF44750400E4650020C2
:1070A0004C75040074650020547504005C75040080
:1070B00017B7D1385C650020D8700400A483002085
:1070C0006C750400A0650020A465002064750400B0
:1070D00074750400847504000AD7233C6F12834939
:1070E0006F12034A046000208C75040000007A448B
:1070F0007C750400947504009C7504005549204675
:1071000012F0E8FC002832D0534C544820604FF075
:107110007E5060604FF08040514B5249A060524811
:10712000524AE16060615249524825611A600CF090
:1071300093FA504901A80CF09DFB4D49012201A88A
:107140000CF052FC60BB4C4918E72146182201A8FC
:107150000CF09CFA01A80CF003FD85E621461822EC
:1071600001A80CF093FA01A80CF0FAFC4FE7434990
:10717000204612F0AFFC58B1FFF756FD33E6364912
:10718000182201A80CF082FA01A80CF0E9FCF4E640
:107190003B49204612F09EFC58B1FFF7C7FA22E6A1
:1071A0002146182201A80CF071FA01A80CF0D8FCB5
:1071B000C9E73449204612F08DFC58B1FFF7FEFBB9
:1071C00011E62146182201A80CF060FA01A80CF083
:1071D000C7FC5EE72C49204612F07CFC00287FF4B7
:1071E000D6AE2A49204612F075FC00287FF4CFAEB7
:1071F0002749204612F06EFC10B1FFF725FAF2E5A0
:107200002449204612F066FC08B123492DE62349A3
:1072100001A812F017FA01A9204612F071FC0546E8
:1072200001A812F0E9FA0DB11D491EE61D492046DC
:1072300012F050FC00283FF4D6ADBFF34F8F1A492F
:107240001A4BCA6802F4E0621343CB60BFF34F8F5E
:1072500000BFFDE7A47504005C6500205452495648
:107260000460002000007A4400002041BD3706453C
:10727000D8700400A4830020AC750400B875040025
:10728000C0750400C8750400D0750400D8750400EA
:10729000E4750400EC750400F87504000876040039
:1072A000147604003C76040000ED00E00400FA05CA
:1072B00070B51B4C1B4D1C4E84B020460AF0C8F91B
:1072C00003462046BBB10AF013FA0346DBB20A2B91
:1072D000294601A811D00D2B0FD0AA683F2AECD85F
:1072E0001946284612F008FB20460AF0B1F9034679
:1072F0002046002BE7D104B070BD12F0BDF901A803
:1073000012F040FC039B01A80BB1FFF74FFD01A851
:1073100012F072FA3146284612F076FACDE700BF35
:1073200068640020C86500203082040010B54A4817
:1073300086B04FF4E13100F02DFD4FF08053474A05
:107340001B6E47480D211BF0C5FF464811F03CFE5F
:10735000FEF7C8FF1722162143480BF03DFB4248B9
:107360000BF0DEFAFFF760FCFFF796FA3F4B187060
:1073700000286BD0002204213D483E4C09F09CFCC3
:107380003D493E4A0346002B18BF21463248137040
:1073900012F082F80421364809F04CFE384934488E
:1073A00009F020FE3749324808F08EFA36480AF0D4
:1073B00035F83649364806220AF0A0F80B2235493E
:1073C00033480AF097F832480AF0D2F832480AF007
:1073D00081FD0621314806F09BFF304806F080FF12
:1073E0002D492E4806F038FF2D4806F04BFF2B485C
:1073F000012106F0C5FFF4222848202106F0B8FF3D
:1074000026481E2106F0B2FF0021244807F026F886
:107410002449684612F016F9694603A812F02CF9BF
:10742000214903A812F0B6FA204912F0B3FA144920
:1074300012F0B0FA0146084811F0E8FF03A812F074
:10744000DBF9684612F0D8F906B010BD18490248B9
:1074500012F022F88EE700BFE46500209476040065
:10746000D4650020A4830020E88200209C650020D1
:10747000687A00204476040058760400AD6300204A
:10748000D0760400C5620200B0630020E0760400FC
:10749000206400200871040068640020A880002097
:1074A000EC800020E8760400F8700400F876040010
:1074B0009C760400F0B5A74B2DED068B1A788BB0A7
:1074C000002A40F0A480A44C2368002B40F0928056
:1074D000FFF7EEFEA14DA24EA24F284607AC00F0EA
:1074E00071FAD8B13368DB0745D5284600F090FA29
:1074F00003469D4ADBB20A2B1146204629D00D2BAC
:1075000027D091683F29E8D81946104612F0F4F9BF
:10751000284607AC00F056FA0028E3D1934809F05A
:10752000FDFD002857D1924C2378002B3FD0914D80
:1075300012F07AFB2A6840F6B833801A984226D8AF
:107540008D480BF0B9FB002874D10BB0BDEC068B55
:10755000F0BD12F091F8204612F014FB099B204672
:107560000BB1FFF723FC204612F046F939467E485E
:1075700012F04AF9B1E739467B4812F063F801236B
:107580007E4A7F49784833601AF032FFADE7002326
:107590007C49237007A812F055F807A8FEF762FF90
:1075A00007A812F029F90BB0BDEC068BF0BD764DA3
:1075B00012F03AFB2A6840F6B833801A9842C4D9D0
:1075C00012F032FB2860FFF767F920700028BCD169
:1075D0006E4907A8DFE76E4C12F026FB226847F2DF
:1075E0003053801A98429ED912F01EFB2060FFF79C
:1075F0002BF898E712F018FB236898427FF668AFE3
:1076000000232360FEF7A0FFFFF71EF860E70022CB
:1076100056481A7008F038F903283FF654AF5D4811
:1076200006F0AAFE00287FF44EAF0146594806F046
:1076300015FF48E712F0F8FA03464F482B600BF0AD
:107640007FFB554B554A03449342054600F25E8149
:1076500007AC534B1A78002A73D1012251491A7092
:10766000514A5248136990ED00AAD2ED019A92ED69
:10767000058A0D60EB1A07EE903AF8EEE77AC7EE4E
:107680008A8A68EEA98A88EE880A11F083FE07EEDE
:10769000905AF8EEE77A20EE089A87EE8A7A27EE7B
:1076A000297A87EE080A11F075FE4149414A0B78A4
:1076B000414802EB8305013303F007030B700378A5
:1076C000C5ED008A072B60EE088A02D80133DBB2D1
:1076D0000370082B7CD004AD384901AE284611F068
:1076E000B1FFB0EE490A0121304612F047F83146A9
:1076F000284612F023F9324912F04CF9B0EE680A2C
:1077000007460121204612F039F82146384612F08A
:1077100015F92C4912F03EF92B4912F03BF92B498F
:1077200012F038F9FEF79EFE204612F065F830465A
:1077300012F062F8284612F05FF80BB0BDEC068B31
:10774000F0BD18490B68ED1A48BF033503EBA505DA
:1077500086E700BFAC63002078650020E465002068
:1077600098630020308204009C630020687A002027
:107770009C65002080650020886500200060002056
:10778000F9970300407704007C650020107704001F
:1077900084650020A8800020E0A57E00C04BFD008D
:1077A00074650020A06500205C6500200460002056
:1077B000A5650020A8650020A4650020A07704002E
:1077C000A4770400A8770400CC7D0400AC77040003
:1077D00092ED004AD2ED013A92ED025AD2ED035AEF
:1077E00092ED046AD2ED056A92ED067AD2ED074A6F
:1077F0005249B4EEE34AF1EE10FA8CBFF0EE637A30
:10780000F0EE447AB4EEE75AB8BFB0EE634AF1EE58
:1078100010FAB4EEC45A98BFF0EE457AF1EE10FAC1
:10782000B8BFB0EE445AF4EEE75AF1EE10FAF4EEB7
:10783000C55A98BFF0EE657AF1EE10FAB8BFF0EED7
:10784000455AB4EEE76AF1EE10FAB4EEE56A98BF75
:10785000F0EE467AF1EE10FAB8BFB0EE656AF4EEDB
:10786000E76AF1EE10FAF4EEC66A98BFF0EE667AB7
:10787000F1EE10FAB8BFF0EE466AB4EEE77AF1EE38
:1078800010FAB4EEE67A98BFF0EE477AF1EE10FA0D
:10789000B8BFB0EE667AF4EEC74AF1EE10FAF4EE35
:1078A000E74AA8BFB0EE647A04ADF1EE10FA98BFD3
:1078B000F0EE647A01AE284637EE678A11F0C2FE18
:1078C000B0EE490A0121304611F058FF31462846F2
:1078D00012F034F81A4912F05DF8B0EE680A074663
:1078E0000121204611F04AFF2146384612F026F8C1
:1078F000144912F04FF8F6EE007A134B1349B4EE28
:10790000E78AF1EE10FA58BF194606E7104E12F05A
:107910008BF93368C01AB0F5FA6F07AC7FF699AEF1
:1079200012F082F90B493060204611F08BFE2046A0
:10793000FEF798FD204611F05FFF8AE6A07704006D
:10794000A4770400A8770400CC7D04000C77040021
:10795000A86300206477040010B5074B044640F884
:10796000183B06F0DFFE2046044B40F8083B08F0C9
:10797000C1FE204610BD00BF9C7A0400C8790400F7
:1079800010B5044B044640F8083B08F0B3FE20460F
:1079900010BD00BFC87904000146014800F022BBB9
:1079A0000066002038B5064B1D783DB10024204606
:1079B000013400F087FEE0B28542F9D838BD00BF3F
:1079C000FC650020407DFF280AD010B500F01CFEA9
:1079D000044608B1204610BD15F0BAF8204610BD87
:1079E00000207047407DFF280ED000B583B00DF118
:1079F000070100F05DFE20B19DF8070003B05DF8BF
:107A000004FB4FF0FF30F9E74FF0FF30704700BF45
:107A1000407DFF280FD000B583B001220DF1070192
:107A200000F0FEFD20B19DF8070003B05DF804FBF7
:107A30004FF0FF30F9E74FF0FF307047407DFF28EF
:107A400001D000F03FBE7047407DFF2801D000F01C
:107A5000A3BE0020704700BFF8B50646407DFF2852
:107A60001CD017465AB10D46144600F0A9FD294610
:107A7000224680B1707D00F06BFE241A01D1384699
:107A8000F8BD054415F064F8707D00F099FD2946B5
:107A900022460028EED13F1B3846F1E70020F8BD12
:107AA000002A00F097802DE9F0434B4991F81C9192
:107AB00091F81D7191F81E8193B01D46064608F19C
:107AC000010309F102001446BA1C81F81C0181F877
:107AD0001D2181F81E3101A8422200211AF05CFD0F
:107AE000412D73D9327D8DF814207A1C204662F026
:107AF0007F0440F60832ADF8042040F2094540F218
:107B00000122ADF80C50ADF810202425334A8DF831
:107B10001650069209F1010304220125DBB28DF80B
:107B20001C508DF81F208DF8302040F2022640F2C4
:107B3000075240F224658DF81E308DF827308DF8FD
:107B40003130ADF808600223ADF82450ADF828209C
:107B5000ADF83820224E8DF80730032508228DF825
:107B600012308DF833308DF83B30089605238DF8B0
:107B70002B508DF82C2067F07F074FF411660A25F3
:107B800040228DF81530ADF82E608DF8345001A9E3
:107B90008DF806908DF80E908DF826908DF83A802D
:107BA0008DF82A7007268DF83C2044F20205422207
:107BB0008DF840308DF841408DF83F60ADF842506F
:107BC0001AF0C2FC422013B0BDE8F083002013B0CD
:107BD000BDE8F083422070470066002020010524A4
:107BE0002402060570B50368184A5B6882B09342A8
:107BF0008DF8071021D10546407DFF2823D000F0E5
:107C0000DFFC0DF1070601243146224688B1687D6C
:107C100000F09EFD241A02D1012002B070BD06447E
:107C200014F096FF687D00F0CBFC31462246002818
:107C3000EDD1C4F1010002B070BD01220DF10701C8
:107C4000984702B070BD002002B070BD597A0200A2
:107C5000002A00F097802DE9F0434B4991F81C91E0
:107C600091F81D7191F81E8193B01D46064608F1EA
:107C7000010309F102001446BA1C81F81C0181F8C5
:107C80001D2181F81E3101A8422200211AF084FC36
:107C9000412D73D932798DF814207A1C204662F078
:107CA0007F0440F60832ADF8042040F2094540F266
:107CB0000122ADF80C50ADF810202425334A8DF880
:107CC0001650069209F1010304220125DBB28DF85A
:107CD0001C508DF81F208DF8302040F2022640F213
:107CE000075240F224658DF81E308DF827308DF84C
:107CF0003130ADF808600223ADF82450ADF82820EB
:107D0000ADF83820224E8DF80730032508228DF873
:107D100012308DF833308DF83B30089605238DF8FE
:107D20002B508DF82C2067F07F074FF411660A2541
:107D300040228DF81530ADF82E608DF8345001A931
:107D40008DF806908DF80E908DF826908DF83A807B
:107D50008DF82A7007268DF83C2044F20205422255
:107D60008DF840308DF841408DF83F60ADF84250BD
:107D70001AF0EAFB422013B0BDE8F083002013B0F4
:107D8000BDE8F083422070470066002020010524F2
:107D900024020605437DFF2B02D10A4B1A7802B15B
:107DA000704710B500F110044275074920460122C2
:107DB0001A7000F0EBF921460448BDE8104000F0CD
:107DC000F3B800BFFC650020C877040000660020FF
:107DD000407DFF280ED000B583B000F0F1FB10B15C
:107DE00003B05DF804FB019014F0B2FE019803B0FB
:107DF0005DF804FB0020704701B900B1704700B581
:107E000083B0694600F0F2FB009BB3F5966F02D099
:107E100003B05DF804FB00F081FBF9E730B4084BD8
:107E2000084A4FF47F4102F10805002430324FF434
:107E30007A709982C3E901401D601A6130BC7047B5
:107E4000E4650020D87704000378002B00F09280CE
:107E5000F0B50546002004462E4603E001342B5DB4
:107E60002E19C3B103F14002D2B2012AF6D9F42B84
:107E7000F4D81A0610D40122A3F55846B6F5006FBF
:107E8000ECD31444202806D021F810302B5D0130AB
:107E90002E19002BE6D1F0BD03F0E002C02A52D02B
:107EA00003F0F002E02A61D003F0F802F02AD5D105
:107EB00003F007030427727802F0C00CBCF1800FB6
:107EC000CCD196F802C00CF0C00E02F03F02BEF119
:107ED000800F42EA8313C1D10CF03F0C032F4CEA10
:107EE00083132AD0F27802F0C006802EB6D102F0B9
:107EF0003F0242EA8313A3F58032B2F5801F38BFF8
:107F00000427ABD2A3F55842B2F5006FA6D3B3F560
:107F1000803F3C44B6D31E28BDDCA3F5803342002D
:107F20009E0A0A44C3F30903A6F52056A3F510538D
:107F300021F810605380023091E7A3F50062B2F59A
:107F4000784FDFD38AE7727802F0C006802E03F004
:107F50001F0383D102F03F0242EA8313A3F18002A0
:107F6000B2F5F06FBFF47AAF022285E703F00F039A
:107F70000327A0E71846704790F850310B2B0CD818
:107F800071B110B403F148025C1C80F850415DF8F7
:107F9000044B40F8221018467047002318467047DB
:107FA0000B461846704700BF70B504460E68B4F81B
:107FB0001821B4F81A31656936689B1A08469BB2D5
:107FC00094F81C112A44B04758B1B4F818316269CA
:107FD00003449BB2A4F81831538094F81C311371F8
:107FE000012070BD2DE9F043264DDFF8A890AC4686
:107FF00004468846BCE80F0089B003AF0FC703AE44
:108000000FCE05F1140E25460FC59EE80700DCF8DB
:1080100000303B806B4636682E8003C36B4603CB33
:10802000012504F118034FF480766361A061E161DA
:1080300084F8202004F59870C4F818912022A4F840
:108040001C61002184F81E511AF0A6FA0E4E0F484A
:10805000A571042240F2EF2340F209470021C4E950
:108060004A0184F85021A3804FF4E131C4E94876F5
:108070000748FFF78FFE404600F03EFA284609B059
:10808000BDE8F083447804000C78040018780400FC
:10809000E4650020090000012DE9F047D0F82C012B
:1080A00088B00E4630B10231FFF7CEFEC0B208B044
:1080B000BDE8F087684600F033FA8646F8B1431E03
:1080C00006F10409DBB2114DE84609EB830904AC63
:1080D00095E80F0018F8017B84E80F0007F00F0CFB
:1080E0000DF1200AD4440AEB17171CF810CC17F82E
:1080F000103CA6F804C073800436B145E8D14FEABD
:108100004E00C0B208B0BDE8F08700BF3078040070
:108110000048704700660020014B5869704700BF57
:108120000066002010B5B0B103281CD0154C94F89F
:108130005031834223D9483004F5AA7154F8200005
:10814000FFF782FEC3B201335B0043F440730E4875
:10815000A4F8523110BD0B4CD4F82031A4F854319E
:108160004FF44173F3E70849A1F5A9742046FFF7DE
:1081700093FF431C5B0043F440739BB2E7E700208E
:1081800010BD00BF006600205267002010B50446F5
:108190000248FFF7F1FE207110BD00BF006600200D
:1081A00010B5134C236882B003B3186851B905F0B9
:1081B000A7FF236893F90400012102B0BDE8104035
:1081C00015F05AB90B4B00934FF48073ADF804309F
:1081D00002AB13E9060005F031FF236893F90400B0
:1081E000002102B0BDE8104015F046B902B010BD44
:1081F0009467002080BA8C010448006828B108B553
:10820000006805F083FF012008BD704794670020D7
:10821000084B1B6863B119B1074B40221A607047C5
:10822000054B4022C3F88020BFF34F8FBFF36F8F01
:10823000704700BF9467002000E100E0024B53F854
:10824000200000B1C06870479867002030B4094C26
:10825000BDF8085054F8204044B1246934B10846B0
:10826000A44611461A462B4630BC6047002030BC5D
:10827000704700BF9867002030B4084CBDF8085024
:1082800054F8204044B1646934B10846A44611460C
:108290001A462B4630BC604730BC704798670020B8
:1082A00000207047024B186808B190F860007047D2
:1082B000A06700202DE9F843234C2568002D40D00D
:1082C0001E462C2303FB00530446D3F82090884617
:1082D0001746B9F1000F30D048461BF08EF8082839
:1082E000024628BF08222C2000FB0454D4E909547C
:1082F000DFF85CC0154B002D08BF65464946404677
:10830000002C08BF1C461AF01FF928461BF075F810
:1083100010280246294628BF102238461AF014F9C0
:1083200020461BF06AF8042802462146304628BF42
:108330000422BDE8F8431AF007B9DFF818900822C4
:10834000D1E7BDE8F88300BFA0670020747804007F
:10835000647804000C78040070B5104E3368CBB11B
:108360002C2404FB0034054662691AB19047336837
:1083700084F832002C2202FB053393F832400CB112
:10838000204670BD284623463A22022101F094F887
:10839000204670BD1C46204670BD00BFA06700206F
:1083A000074B1B6853B110B42C2404FB0030C46A83
:1083B000038E0C605DF8044B13807047704700BF5C
:1083C000A067002008B520220023052101F074F8E1
:1083D0004FF0FF3008BD00BF30B4084C256855B1E0
:1083E0000446084611461A462C2303FB0454E3694D
:1083F0000BB130BC1847012030BC7047A06700208B
:1084000030B4094C029A25684DB104460846194615
:108410002C2303FB0454A3680BB130BC18474FF066
:10842000FF3030BC704700BFA067002030B4094C5B
:10843000029A25684DB10446084619462C2303FBD1
:108440000454E3680BB130BC18474FF0FF3030BC28
:10845000704700BFA0670020044B1B682BB12C2283
:1084600002FB0030036903B118477047A067002082
:10847000054B1B682BB12C2202FB0030836903B132
:1084800018470120704700BFA067002005F0FAB927
:1084900000B5154B83B0402283F8272301A901239F
:1084A0000020ADF8043002F087FF4FF08043002435
:1084B000D3F838548DF80040684613F0FBFF0B4B9F
:1084C000019301A814F046F814F050F8EB0707D414
:1084D00000214FF0FF3002F0FDFFFFF763FAF7E7EE
:1084E000204605F0CFF9F3E700E100E08D840200BB
:1084F000002004F02DBE00BF00B5002383B003228E
:10850000CDE9002303490448C82212F019FC03B046
:108510005DF804FB787804009184020014F01ABE20
:108520004FF08052536E1BBA0360136E1BBA436048
:1085300008207047004870478078040070B51E4DD1
:108540002B6883B1012913D11478C4F34114012C91
:108550000BD0022C07D15478012C0BD0022C07D160
:108560009388072B20D0002070BD517822290BD092
:10857000012070BD9C69002CF5D02378114622465D
:10858000BDE8704003F038BE5188003918BF0121A2
:108590005975114603F016FE2A68D369002BE7D0FF
:1085A000507D9847204670BD044C114623892246D1
:1085B000BDE8704003F020BEA467002008600020E2
:1085C00010B5044602F0E0FE08B9002010BD02F02C
:1085D000E3FE0028F9D104484FF4367303FB04008E
:1085E000007900F0010010BD28680020054B4FF411
:1085F000367202FB0033986808609A899B7B8B7106
:108600008A8070472868002008B5044B4FF4367202
:1086100002FB0030103002F0A5FC08BD28680020E5
:108620002DE9F8434FF4367404FB00F41E4E4FF668
:10863000FF73074604F110054FF6FE70824288BFB3
:108640001A46354492B2284602F0B8FC804602F041
:108650009BFE10B94046BDE8F88302F09DFE8146BE
:108660000028F7D13444E378002BF3D0284602F0F9
:1086700093FC3F28EED9E178484603F0F1FC00284E
:10868000E8D0284602F088FC3F2808D9074AE1785C
:10869000484602EBC712402303F002FDDAE7E17817
:1086A000484603F0EDFCD5E728680020A8670020C5
:1086B000034B4FF4367202FB0030103002F0ECBC7A
:1086C000286800202DE9F041064602F05DFE10B951
:1086D0000020BDE8F08102F05FFE80460028F7D15F
:1086E0004FF43674174F04FB06F404F124053D449F
:1086F000284602F037FC0028EAD027444046B978E3
:1087000003F0AEFC0028E3D00F49402202EBC6166E
:108710000E442846314602F051FC044660B1B97857
:1087200032464046234603F0BBFC40B9074B1B686A
:10873000DB07CDD500BECCE7B97803F0A1FC20461D
:10874000C7E700BF28680020A8670020F0ED00E020
:1087500038B5104B4FF4367404FB003405464FF621
:10876000FF734FF6FE70824288BF1A46243492B2DD
:10877000204602F0CBFC034620461C4602F0F2FBEA
:108780003F2801D8204638BD2846FFF79BFF2046EA
:1087900038BD00BF2868002008B5044B4FF436727E
:1087A00002FB0030243002F0F7FB08BD28680020EF
:1087B00070B5214C82B000214FF4367220460E462F
:1087C00019F0EAFEFF234FF4E132082504F13801E5
:1087D0006371A26001234FF48072009604F11000CF
:1087E000A573A68102F086FB144B1B78C3F38003AC
:1087F000009304F59C7101234FF4807204F124006E
:1088000002F078FB04F50E71012011F0FBFC04F579
:1088100022710546012011F0F5FC05B130B9084B75
:108820001B68DB0700D500BE02B070BDC4E9076558
:10883000C4E90C0602B070BD28680020BC600020AE
:10884000F0ED00E038B5094C206A256B20B112F03C
:10885000D9F80023C4E907332DB1284612F0D2F825
:108860000023C4E90C33012038BD00BF2868002074
:1088700010B50E4C0E482378002202600271DA0710
:1088800009D59B070DD521780A48BDE81040C1F3F2
:10889000800102F0FDBC103002F0DAFC23789B0767
:1088A000F1D4044802F0D4FCEDE700BFBC60002026
:1088B000286800204C6800202DE9F0414B79022BFC
:1088C00082B002D18B79022B04D00025284602B059
:1088D000BDE8F081374FBB782BB1374B1B68DB0706
:1088E000F3D500BEF1E78B783B700C780C4406465C
:1088F000617824294FF009050BD1082A02D80FE02E
:10890000AA420DD323781C442B44617824299DB2BC
:10891000F6D0052927D0042902D163790A2B30D05B
:1089200002F032FD0028D1D002F036FD04460028C6
:10893000CCD1FB78002BC9D0204802F02DFB3F287A
:10894000C4D9F978204603F08BFB0028BED01B4821
:1089500002F022FB3F28F97828D9194A2046402303
:1089600003F09EFBB2E72146304603F055FB00289A
:10897000B3D0A3787B7023781C442B4461789DB2DC
:10898000C9E7104A94F80080019202230132009254
:10899000304604EB08011A4603F0ACFA00289CD0DC
:1089A00005F10E0318FA83F39DB2B9E7204603F0F0
:1089B00067FB8BE728680020F0ED00E038680020B6
:1089C000A86700202A68002038B5137803F06003F8
:1089D000202B04D1294C938825789D4201D000207A
:1089E00038BD5378203B032BF9D8DFE803F02D295D
:1089F0000D0201293CD0032924D1214B13B3518806
:108A00000020AFF300801DE0012931D0032919D1E6
:108A10001C4B55881978257111F0040105F00104EB
:108A2000194818BF84F0010102F032FC174B4BB11A
:108A3000C5F3400221460020FFF7DEF9012038BDD2
:108A400001290ED0012038BD01290AD00329F9D10E
:108A50000F4B002BF6D00F490020AFF30080012010
:108A600038BD114607230B4A03F0C6FB012038BD71
:108A7000114603F0A7FB012038BD00BF2868002085
:108A800000000000BC6000204C680020F97D02005E
:108A900000000000306800202DE9F0475F4FFA78B1
:108AA0008A420C4606461D465AD1DFF890819AB29A
:108AB000414607F1100002F029FB594BC3B17B7905
:108AC000FF2B15D0A5B108EB050A07F1100902E04C
:108AD000C2450DD07B7918F8012B9A42F8D148464F
:108AE00002F050FA0028F3D17979AFF30080EFE774
:108AF0004C4B23B14C4802F045FA002863D002F0F9
:108B000043FC002862D1BB789C4202D00120BDE822
:108B1000F087464B13B10020AFF3008002F034FC25
:108B200000282BD1424802F01DFA0028EED1002D7A
:108B3000ECD015F03F05E9D1B978304603F090FA52
:108B40000028E3D0B97830462B462A4603F0A8FA2D
:108B50000028DBD1374B1B68DA070CD500BED6E7FF
:108B6000BB788B42D5D0334B1B68DB0703D500BEE7
:108B70000020BDE8F0870020BDE8F08702F00CFC83
:108B800004460028CED12A4802F0ECF90028C9D0CA
:108B9000B978204603F064FA0028C3D02649244857
:108BA000402202F00BFA034600282FD0224AB9785F
:108BB000204603F075FA0028A8D11E4B1B68D90780
:108BC000B0D500BEAEE7AFF3008098E702F0E4FB5B
:108BD0008046002897D1FB78002B94D0124802F0F1
:108BE000DBF93F288FD9F978404603F039FA00289D
:108BF00089D00D4802F0D0F93F2840460AD94023D9
:108C00000E4AF97803F04CFABB787DE7B97803F0A7
:108C100037FA87E7F97803F033FA74E72868002019
:108C20000000000000000000386800200000000084
:108C30004C680020F0ED00E0E8670020A867002005
:108C4000704700BF01207047704700BF704700BFEA
:108C5000044B0022C3E90022C3E90222C3E9042233
:108C6000704700BF806C002001207047044B002239
:108C7000C3E90022C3E90222C3E90422704700BF0E
:108C8000806C00202DE9F0414B79032B82B012D18A
:108C900006460879C0EBC0051235ADB295420C46C8
:108CA00005D8254F7A78002A42D07A7B52B1234BDF
:108CB0001B68DA0704D40025284602B0BDE8F0811D
:108CC00000BEF8E70C374FF4A0782278A318597843
:108CD0002129ECD1BB60A15C07F1010E07F1020C68
:108CE00019440246CDE900CE0323304603F002F9D1
:108CF0000028DCD0A379B978012B04BFE379FB709D
:108D00000123BB71A278BB683A70B3F80730BB800F
:108D10000029D1D00A4A30464244402303F0C0F92A
:108D20000028C9D1054B1B68DB07C5D500BEC3E7CA
:108D30004FF08008C9E700BF806C0020F0ED00E034
:108D4000006B0020137803F01F0CBCF1010F13D14E
:108D50002DE9F0410C468549978815460A78FFB2FF
:108D6000BA4282B0064609D00A7BBA4200F0CF80F0
:108D7000002002B0BDE8F081002070470027B8460F
:108D8000BC460720062213F0600306D1012C00F038
:108D9000A280012002B0BDE8F081202BE8D16B78E1
:108DA000013B0A2BE4D80FF2080E5EF823F000BF57
:108DB000878E02007F8E02006B8E0200718D020092
:108DC000718D0200718D0200718D0200718D0200A3
:108DD0002B8E0200018E0200DD8D0200012C1ED0C0
:108DE000032CD6D14FEA48036A88434401EB83033E
:108DF000D2B2604611469A71FFF722FF0120B8E710
:108E0000012CC6D14FEA48036A88434401EB83032F
:108E1000110A6046D971FFF715FF0028A8D029462E
:108E2000304603F0CFF90120A3E7012C00F0868043
:108E3000032CAED1EC8869884D4B402C4FEA1122AF
:108E4000204628BF402011F0FF013B4407D0012CF1
:108E500005D91C788C4202D1013880B201330090D0
:108E60006046FFF709FA012083E7012C91D10A44FB
:108E700029463046234603F0BFF9204679E7012C06
:108E800087D10A18F4E7012C83D1B5F806E06B8886
:108E90003749704640280F4428BF402013F0FF0197
:108EA0004FEA13223B465CD0BEF1010F5BD901387B
:108EB00003F8011B80B200906046FFF7C7F9231842
:108EC0009BB2002B46D12B4A1268D2077FF550AFD8
:108ED00000BE18464DE76B78062B7FF449AF6B88D0
:108EE0001B0A212B18D0222B7FF442AF6046FFF7DC
:108EF000A5F91E494FEA4803434401EB83030246A8
:108F00009B882946304603F077F9204631E7C02791
:108F100013201222E04636E74FEA4803984401EB5B
:108F20008808D8F80820002A3FF422AF1378294691
:108F3000304602B0BDE8F04103F05EB9EB88402B4B
:108F40003FF616AF0A4A294630463A4403F054F930
:108F500020460EE73A462946304603F04DF90120F7
:108F600007E70C46A7E70024A5E700BF806C0020B8
:108F7000006B0020F0ED00E0F0B5304EB4788C428C
:108F800083B0054611D0707888422DD0B07B8842DE
:108F900047D0707B88424CD0294B1B68DA0702D43B
:108FA000002003B0F0BD00BEFAE7777880244FF0D0
:108FB000400C0020B9421AD012BB22499BB20C448B
:108FC0000093114623460222FFF756F9B178224654
:108FD0002846402303F064F80028E2D1184B1B68B0
:108FE000DB07DDD500BEDCE74FF0400C00207AB98E
:108FF00014499AB26144FFF727FE012003B0F0BD87
:10900000104A14449BB222460221FFF71FFEDDE7FF
:109010000C4A9BB262440121FFF718FE012003B005
:10902000F0BD777B4FF4A0740C364FF4807C0120A8
:10903000C0E74FF4807C0120D9E700BF806C00209E
:10904000F0ED00E0006B002070B51A4C82B00021FA
:109050000D464FF4EC72204619F09EFA04F13801E7
:109060000123802204F11000009501F043FF04F178
:10907000B80101238022009504F1240001F03AFF99
:1090800004F59C71012011F0BDF804F5C471064689
:10909000012011F0B7F830B9074B1B68DB0700D58A
:1090A00000BE02B070BDC4E90756C4E90C0502B0A9
:1090B00070BD00BF186D0020F0ED00E038B5094C20
:1090C000206A256B20B111F09DFC0023C4E9073311
:1090D0002DB1284611F096FC0023C4E90C33012081
:1090E00038BD00BF186D002010B5084C002304F1F6
:1090F0001000C4E90033C4E9023302F0A9F804F116
:109100002400BDE8104002F0A3B800BF186D002095
:109110002DE9F0474B79012B03D000242046BDE810
:10912000F0878B79012B0D468046924618D04978FE
:109130000429F2D10024032BEFD1E8790028ECD1E7
:10914000DFF8F09099F8011099F8023051EA03071E
:1091500022D0354B1B68DB07DFD500BE0446DDE7B8
:10916000CB79002BD9D10B781D449CB26978242986
:109170000BD1944202D9D0E7A245CED32B781D441F
:109180002344697824299CB2F6D00429C5D16B798F
:10919000012BC2D1AB79CEE7AB7889F800302E78BD
:1091A00028793444A4B22E4430B920E03378874281
:1091B0001C44A4B21E441AD2A24518D37378052BBE
:1091C000F4D13146404602F027FF0028C1D0B378E1
:1091D0002879DA0914BF89F8013089F8023096F845
:1091E00000C07B1C6444DFB2A4B26644DEE70F48D3
:1091F00001F0D2FE3F2891D999F80210002002F028
:109200002FFF00288AD0094801F0C6FE3F2899F8B0
:10921000021005D9064A4023002002F041FF7DE7F5
:10922000002002F02DFF79E7F0ED00E0286D00202E
:10923000D86C0020186D002000207047F8B53C4D18
:10924000AC788C421E4619D19AB23A4905F1100009
:1092500001F05CFF384B13B10020AFF300803748BA
:1092600001F09AFE3F2806D9A978002002F0F8FE06
:109270000446002847D101242046F8BD6B788B4274
:1092800008D02F4B1C6814F00104F5D000BE002458
:109290002046F8BD074605F1240001F063FEB8B989
:1092A000284801F05FFE0028E5D1002EE3D016F03B
:1092B0003F06E0D16978384602F0D2FE0446002825
:1092C000D9D0697838463346324602F0E9FED3E712
:1092D0006978002002F0C4FE0028E1D01A4940223B
:1092E00005F1240001F06AFE0346E0B1164A6978F0
:1092F000002002F0D5FE0028BDD1114B1B68DB0712
:10930000CED500BECCE70D4801F046FE3F28A97837
:1093100005D9084A4023002002F0C2FEACE7002035
:1093200002F0AEFEA8E7697802F0AAFEB8E700BF37
:10933000186D0020D86C002000000000286D00206F
:10934000F0ED00E03C6D0020986C002070B5314CD1
:10935000E28AA36852BA92B286B0054612B1B3FB54
:10936000F2F292B2A06BD4F81110B0FBF2F61B1A15
:10937000B3F5007F28BF4FF4007309BA009302FBD6
:1093800016023144244B607BFFF73AF8011E1CDBC8
:109390000AD08BB2204A94F82E10284602F080FEA4
:1093A000002831D006B070BD94F82E308DF8103002
:1093B00003A807238DF80C5005918DF811108DF836
:1093C0000D3002F07BFC06B070BDA268A36B43F6C3
:1093D00002200021D31AA08784F83E100120022128
:1093E000A36284F82C0084F83010002ADAD0002B15
:1093F000D8D0237BDB0914BF94F82E1094F82F10DB
:10940000284602F08DFECDE7044B1B68DB07C9D56B
:1094100000BEC7E7F0700020F06E0020F0ED00E025
:1094200038B5214B214C05461BB1607BFFF720F876
:10943000B0B1A06BA36894F82F101D4A1B1AB3F5A6
:10944000007F28BF4FF4007328469BB202F028FE2D
:1094500000B138BD174B1B68DB07FAD500BE38BD1D
:10946000A26BA16884F83E008B1A42F207720120B9
:10947000A2870222A36284F82C0084F830200029FD
:10948000E7D0002BE5D0237BDB0906D094F82E1023
:109490002846BDE8384002F043BE94F82F10284615
:1094A000BDE8384002F03CBE71840200F07000203C
:1094B000F06E0020F0ED00E0044880F83C1080F8E9
:1094C0003D2080F83E300120704700BFF070002042
:1094D00002484022002119F05FB800BFF070002060
:1094E00002484022002119F057B800BFF070002058
:1094F0004B79082B01D0002070478B79062BFAD1CD
:10950000CB79502BF7D1162A06D81C4B1B68D907EC
:10951000F1D500BE0020704770B5194D8B7885F8E5
:109520002D300B7882B005F12F0205F12E0619447B
:109530000223CDE900261A46044602F0DBFC30B9CE
:109540000E4A1268D2070FD500BE02B070BD0023CC
:1095500085F8303095F82F100A4A20461F2302F074
:109560009FFD20B11720F0E7002002B070BD034B33
:109570001B68DB07F6D500BE1720E6E7F0ED00E03C
:10958000F0700020F06E0020012901D0012070470A
:10959000F0B5137803F07F04022C85B0054611D096
:1095A00003F06003202B0AD15378FE2B28D0FF2B29
:1095B00005D153881BB9D688B3B2002B3CD000200C
:1095C00005B0F0BD5478012CEAD15388002BF6D1B8
:1095D0003B4E938896F83020042AD9B258D096F89A
:1095E0002E408C4236D096F82F408C4205D122B9BD
:1095F000214602F087FD00284ED0012005B0F0BDC5
:109600005388002BDBD1D388012BD8D12D488DF87E
:109610000F3030B10192FEF745FE019A0146002855
:10962000CDD04C1E2846114601230DF10F028DF8B6
:109630000F4002F0E1FDE0E7214C11462846A687E5
:10964000C4E90D3384F8303084F83E3002F0BAFDBE
:109650000120B5E7022AD0D1B26BB3681A4F9B1A2A
:10966000B36206F120030FCB07C73A46214602F842
:109670000C39032428460D2386F8304002F010FDF3
:109680000028BAD1114B1B68DB0798D500BE97E7BD
:1096900002F046FD204693E72146284602F05EFD93
:1096A0000028AAD1002386F8303096F82F10064AF9
:1096B00028461F2302F0F4FC00289ED1E2E700BFF9
:1096C000F0700020A5820200F06E0020F0ED00E0B6
:1096D0002DE9F041B94C94F83050012D8EB01E4662
:1096E00007467DD0032D8C4657D035B1022D00F0B2
:1096F0008B8001200EB0BDE8F08194F82F308B42B2
:10970000F7D11F2E40F09E80DFF8C082AC4BD8F816
:1097100000209A4240F09680C646BEE80F002646DA
:109720000FC69EE80F0007C626F8023B1B0C3370DD
:10973000E27BA44EA562D4E901030121282A84F822
:109740002C50A56360626363266284F8301000F0D9
:10975000F6802A2A00F0B582002B00F03D81217BA3
:10976000C90940F03981B3F5007F40F2328394F8A3
:109770003C20A3620121022384F82C1084F83030AD
:1097800022B942F2050384F83E20A3876146384699
:1097900002F0C6FC94F83050A8E794F82E308B42C3
:1097A000A7D10D2EA5D1E37B282B00F082822A2B96
:1097B00000F07782844B23B1607B04F10F01AFF39B
:1097C0000080002084F83000804A94F82F101F2376
:1097D000384602F065FC002858D094F8305085E7F0
:1097E000B3F5007F25D8E37B282B55D02A2B72D0E8
:1097F000A36B227B3344D209A36360D0626B9A428D
:1098000055D8022384F8303094F82E10384602F0F0
:10981000A5FC00287FF46DAFA368A26B934220D90A
:10982000217BC9091DD094F82E10384602F078FC2F
:109830005FE7674B1B68D90700D500BE00200EB05C
:10984000BDE8F081042394F82E1084F830303846B7
:1098500002F066FC384694F82F1002F061FC0020FC
:1098600048E79B1A5B4AA3620FCA584D07C52A46B0
:1098700094F82E1002F80C39032384F8303038465F
:109880000D2302F00DFC00287FF433AF504B1B6812
:10989000DB07D3D500BE2DE7D4E90D233344934233
:1098A000A363AED2FFF752FD94F830501EE7484B49
:1098B0001B68DA0791D500BE94F8305016E7A38EE6
:1098C000424A607B04F10F01FEF77CFD0028C0F2E4
:1098D0003182A36B92E7E08A40BA80B218B1A368E4
:1098E000B3FBF0F080B2D4F81110A26B374DB2FB8D
:1098F000F0F309BA00FB13221944607B00962B4653
:10990000FEF794FD0028C0F23682864240F2F681CE
:10991000361A002840F0678294F82F208DF81470D2
:109920000021072305A807968DF819108DF8182037
:109930008DF8153002F0C2F994F83050D6E6E18A7D
:1099400049BA89B2A3B900293FF45BAF94F83C301F
:109950000222002184F82C2084F83020A162002B00
:109960007FF452AF42F2050284F83E30A2874BE703
:10997000207BC0090BD0002900F016828B42C0F07A
:109980005682282A38468DD0FFF74AFD25E794F8FD
:109990003C20A362022384F82C3084F83030002A63
:1099A0007FF4F4AE42F205020023A28784F83E3031
:1099B000207BC00900283FF4E9AE97E1F070002059
:1099C000555342435553425300000000F06E0020AF
:1099D000F0ED00E010710020657B252A27D8DFE834
:1099E00012F0040126002600C600260026002600EC
:1099F0002600260026002600260026002600260037
:109A0000260026002600400126002600260026000B
:109A100026002600260083002F01260026009D0038
:109A200026002600260026000A012600570094F88A
:109A30003C20002A40F08580B54AB6499BB22846B2
:109A4000FEF7C0FC00287CDB002835D1A368002B82
:109A50003FF4D7AEA16B94F83C205B1A01200221A1
:109A6000A36284F82C0084F8301022B942F2050178
:109A700084F83E20A187002B3FF4C6AE237BDB0990
:109A800040F0348194F82F10384602F049FBA4E6E8
:109A9000284604AA05A9FEF783FC059B002B00F0CD
:109AA000BB81BDF81020002A00F0B681013B1BBA33
:109AB00012BAC8E900320820A368002B40F09D814B
:109AC000A36B94F83C205B4201200221A36284F83E
:109AD0002C0084F83010002A7FF496AE42F2050381
:109AE00084F83E20A3878FE6059B8B4A03F400038E
:109AF00043F003030593002A00F0A7812846FEF7F0
:109B0000B7FC9DF8163080F0010060F3C7138DF8A4
:109B10001630059BC8F800300420CDE77F4B002BA2
:109B200094D0227DE17C2846AFF3008000288DD1BF
:109B300094F83C302BB943F602220023A28784F824
:109B40003E30A268A36B94F83C100120D31A84F82D
:109B50002C000220A36284F8300021B942F20500F3
:109B600084F83E10A087002A3FF44EAE83E794F8B5
:109B70003C2094F83D0094F83E10DFF894C1DFF8E3
:109B8000B0E14FF000084FF00003CDE90588CDE9C2
:109B9000078862F303038DF81630F0220A23ADF82C
:109BA00024808DF820008DF821108DF814208DF878
:109BB0001B3005AE0FCEACE80F003368ACF80030B8
:109BC000BEF1000F00F03B81ACF1100128464FF4CC
:109BD0000072AFF300800028A4F83C8084F83E8037
:109BE000BFF632AF657B636B26E72846FEF7B4FB12
:109BF00000289DD02AE705AE00230DF10E0228466D
:109C000004A973600593B360FEF7CAFB049A002AA7
:109C100000F00281BDF80E30002B00F0FD8012BA7A
:109C2000082106925BBA0222ADF81E308DF817109B
:109C30008DF81C2096E8070088E807000C203BE719
:109C4000374B002B3FF402AFE17C2846C1F34003C1
:109C500001F001020909FEF7BFFB00287FF4F6AE10
:109C600066E74FF02033284600221F250692CDE9F3
:109C70000A332C4E089307A909AA079309930D9359
:109C80000C938DF818500DAB05AD0596FEF712FB41
:109C90000FCD1F4E0FC60FCD0FC62B68336024208B
:109CA0000AE7214B002B3FF48CAD607BFEF7D4FB21
:109CB00087E51E4B002B3FF484AD607BAFF3008043
:109CC0007FE5E18A49BA89B2002B3FF43CAE207BA4
:109CD000C0093FF450AE94F83C20A362022384F8FC
:109CE0002C3084F83030002A00F0B18094F82E1027
:109CF000384602F015FA94F83050F7E4D4E90D2311
:109D000033449342A363BFF47CAD38463CE600BFC6
:109D1000F06E0020FF70002071840200000000003F
:109D2000D983020000800202598402000000000072
:109D300000000000A268A36B94F83C0084F82C504B
:109D4000D11A0225A16284F8305020B942F20505EB
:109D500084F83E00A587002A3FF450AD00293FF467
:109D60004DAD237BDB0964D094F82E10384602F009
:109D7000D7F9A36B42E5A36BA2683344D11A43F62B
:109D80000220A3630023A08784F83E300120022331
:109D9000A16284F82C0084F83030002A3FF434ADFE
:109DA00000293FF431AD69E6012194F83C2084F8A4
:109DB0002C100221A36284F83010002A7FF4FAAD3F
:109DC00042F2050184F83E20A187002B3FF41CAD30
:109DD000EEE5224A9BB26146384602F061F900285E
:109DE0007FF4FBAC52E5A36B291813FA80F33246DB
:109DF0002846A36318F0B6FB8EE5984228BF1846A4
:109E000083B26063154A94F82E10384602F048F980
:109E100000287FF4E2AC39E594F83C30002B7FF465
:109E200090AE43F6022284F83E30A28789E60221F2
:109E3000BBE794F82F10384602F072F949E5A4F810
:109E40003CE084F83EE0122036E6012059E642F27A
:109E5000050384F83E20A387AAE500BFF06E00202A
:109E600070B5134C134E84B020464FF4AE720021EF
:109E700018F092FB4025002304F58E72CDE90156BF
:109E8000009219461A4604F1B000039503F07EFFD4
:109E90002E4404F170020023CDE90025CDE90265CE
:109EA000201D1946012203F071FF04B070BD00BFF0
:109EB000B07100203071002010B5054C04F1B000E5
:109EC00003F08EFF201D03F08BFF012010BD00BFAB
:109ED000B071002038B5074C2046002500F8B85B6B
:109EE00001F0B6F904F10C0001F0B2F984F8B150B8
:109EF000657138BDB07100204B79FF2B01D0002077
:109F000070472DE9F04FDFF810A10B780E4683461D
:109F10009AF805109AF8B100B51850EA010283B01A
:109F200006EB030403D0002003B0BDE8F08FB27845
:109F30008AF80020A54217D9F25CA3189D4213D3DA
:109F40000AF1B8080AF1B0070AF10C096278042A8C
:109F50000AD00B2A08D0052A0BD09D421C4603D9F3
:109F60001A7813449D42F1D2A01B80B203B0BDE821
:109F7000F08F2146584602F04FF8002841D0A378D0
:109F8000DB0905D19AF8B1300BB32278A318E4E7C6
:109F90009AF80530002BF8D14846019301F058F9A2
:109FA000A2788AF80520A2889AF804C0019B184973
:109FB000C2F30A02A2F50072B2FA82F2520962F307
:109FC000410C18468AF804C003F056FFDDE740460E
:109FD00001F03EF9A3788AF8B130A3889AF8B0204E
:109FE000C3F30A03A3F50073B3FA83F35B0963F3C6
:109FF0004102394658468AF8B02003F08BFF00280A
:10A00000C3D1044B1B68DB078DD500BE8CE700BFB6
:10A01000B4710020F0ED00E0B0710020F8B51C4CE8
:10A0200094F8B1508D4207461E4617D1B4F8BC30A3
:10A0300063B9184B23B11849B2B20020AFF30080C6
:10A040001649384603F066FF0120F8BDD4F8B41075
:10A05000B2B204F1B80001F059F8EAE763798B4233
:10A0600001D00020F8BD0E4B1BB1B1B20020AFF300
:10A0700000800C49384603F0FFFE08B10120F8BD0E
:10A0800008493246384603F0B7FE0120F8BD00BF4C
:10A09000B0710020000000003071002060720020CC
:10A0A00000000000B4710020F8B50F688D883D44B1
:10A0B000AF420E46B9780BD20B468B423C4603D1D9
:10A0C0000DE06378042B05D023781C44A542F8D812
:10A0D0000020F8BDAC42FBD2A3788B42F4D1E378E8
:10A0E0009A42F1D1A542F3D9237D012B1FD82379C0
:10A0F00023B3012BECD12378E289617A1A44194405
:10A1000022442144914204D3E2E70B7819448A4265
:10A11000DED94B78052BF8D18A42D9D901F07CFFE2
:10A1200060B9084B1B68DB07D2D500BEF8BD054BF4
:10A130001B68DA07CCD500BE0020CAE7E41BF48018
:10A140000120F8BDF0ED00E0F0B4C488002C45D04B
:10A15000037867488A7803EB830503EB4503C0580F
:10A1600003191D7BAA4239D822B9012D00F2A6801D
:10A1700001228A7001258D60C1F80E504D770026AE
:10A180006FF03F0581F822608D766FF003066FF067
:10A190006405CE760D77574EC1F81E60082581F80C
:10A1A0002350005DB3F80D5005441D440344AB42F9
:10A1B00014D2514F9C78102C0CD827FA04F0C043CD
:10A1C00010F0010006D1DE78B24203D112E05878D7
:10A1D00024280CD0187803449D42F8D8474B1B68BC
:10A1E000DA0702D40020F0BC704700BEFAE79D42B7
:10A1F000E0D8F3E79D42F1D0062C06D0102C04D015
:10A20000042CF0D1012248730A7391F803C01A7923
:10A2100094451BD8BCF1000F05D1012A4ED84FF050
:10A22000010C81F803C01A781A44AA420ED296781B
:10A2300006F0FD07052F0FD0112E03D10CE0567844
:10A24000242E3ED0167832449542F8D82B4B1B680A
:10A25000DB07C7D500BEC6E7D678B445F2D1954234
:10A26000F4D0D1F812503DB9062C2DD0102C2BD0A3
:10A27000042C32D0C1F812504C6854B9537E012BD3
:10A280001CD8D2F81A401BB9D2F81E30A34215D1FF
:10A290004C6042F20F739C42D8D9194A6B1EA2FB44
:10A2A000042403EB5433640BB3FBF4F30233B3F530
:10A2B000807F28BF4FF48073C1F816300120F0BCB6
:10A2C00070479542B3D8C1E7B2F80530B2F80750ED
:10A2D00005FB03F52D01ED08CCE7B2F80560B2F8F7
:10A2E00007405D7D04FB06F305FB03F5ED08C1E7C0
:10A2F0000C7300200301010150100100F0ED00E09B
:10A300005917B7D12DE9F04F0B78624C03EB830559
:10A310000E4603EB45030989E75883B09146804612
:10A3200079B13944CB7803F00303012B00F09E8010
:10A33000738933B13B44DA7802F00302012A00F05A
:10A340009B807488B58800233C44B381F3813382B9
:10A350007382B382F382A2783D44AC4238BF134685
:10A3600009D29A4203D10FE06378042B07D02378F7
:10A370001C44A542F8D8002003B0BDE8F08FA542E8
:10A38000F9D9A3789A42F2D1E3789945EFD1A54261
:10A39000F1D923790193022B0FD8E31BF380B9F194
:10A3A000000F10D1737F012B4CD123781C44019BEB
:10A3B0006BB9012003B0BDE8F08F374B1B68DA079B
:10A3C000D9D500BED7E723781C44019B83B306F19F
:10A3D000080A4FF0000BA54206D8EEE7042BECD09C
:10A3E00023781C44A542E8D96378052BF6D1A54211
:10A3F000E3D9E37803F00303B9F1000F01D0012B97
:10A4000019D0022BB7D12146404601F005FE0028A5
:10A4100039D0E31B2AF8023B019A21780BF10103A2
:10A420009A420C444FF0010BD5D8B9F1000FC0D0BF
:10A4300002237377BDE7A388B169C3F30A038B4294
:10A44000E1D298E706F11E03494686F81D90A6F86A
:10A450001890A6F81A901846302218F09DF8014678
:10A460003046FFF771FE00289FD184E70023338137
:10A47000897801F081FE5BE700227281997840467D
:10A4800001F07AFE5DE7044B1B68DB077FF573AFD5
:10A4900000BE71E70C730020F0ED00E0044B0548AE
:10A4A0000021C3E900114E22C3F8071018F074B858
:10A4B0000C7300201874002001207047044B0548DD
:10A4C0000021C3E900114E22C3F8071018F064B848
:10A4D0000C730020187400202DE9F84F4B790E2BD7
:10A4E00003D18B79012B0E4603D000273846BDE8F7
:10A4F000F88FCB79012BF8D1DFF834911446D9F8D5
:10A5000000202AB1484B1B68DB07EED500BEECE704
:10A5100049468046C9F80060A9F80440FFF7C4FD29
:10A520000028E2D0B9F80620D9F80030B1781344F9
:10A530003444A64293F814A0334605D308E05A7871
:10A54000042A3DD00B2A3BD01A7813449C42F6D8FB
:10A55000BAF1000F65D03549DFF8D8E048884FF0F0
:10A56000000C6246E3460028CCD19D1B0EF8010B7F
:10A570000870A8B248809C429F784A7005D84DE088
:10A580005A78042A16D00B2A14D01A7813449C4205
:10A59000F6D89A1B97B28F8081F81DB0BCF1000FDE
:10A5A00014D00CF1010C5FFA8CF29245DBD8A9F8BB
:10A5B00004709BE79C42ECD99A78BA42E5D0E8E770
:10A5C0009C42C5D99A788A42BED0C1E7BAF1010F40
:10A5D000E7D116FA85F516FA82F29542A9780AD2E1
:10A5E0000B46994203D113E06B78042B0BD02B78E8
:10A5F0001D44AA42F8D80D4940460022FFF782FECA
:10A600000028D4D171E7AA42F5D9AB789942EED1AE
:10A61000EB78012BEBD1AA42C9D1ECE707462A46D9
:10A62000B9E79B1B9FB2C2E7F0ED00E01874002071
:10A630000C730020147300202DE9F047167817469C
:10A6400006F01F02012A8CB019D1DFF80093BB88F5
:10A65000D9F8005080465FFA83FC15B1AA786245AC
:10A6600012D0B84E74885CB1357805EB850205EBE5
:10A67000420559F805502C44A278624511D00024B7
:10A6800020460CB0BDE8F087C6F3411A16F0600F03
:10A6900054464ED0012C27D0072389F809300024D6
:10A6A000EEE73A78C2F3411912F0600F484600F025
:10A6B000B580012815D11B0A13D17A88100A022807
:10A6C00000F04A81062800F0FA80012800F00C8191
:10A6D0009D4B1B68DB0704D500BE0723337700249E
:10A6E000CEE707233377CAE7180A65D0B9F80630F2
:10A6F000EC18EA5CE3891A442244944214D2A1780B
:10A700000239052902D8E17881420DD021780C4424
:10A71000A24204D808E023781C44A24204D96378FA
:10A72000242BF8D1A242EAD8002389F80930012469
:10A73000A6E77B780A2B5AD00B2B33D10129F3D112
:10A74000FB88002B4ED1B9F80630EA181179C1B157
:10A75000E85CD189537A0144034413440A44934288
:10A7600005D3C4E119780B449A4240F2C08159786C
:10A770000529F7D19A4240F2BA819978404601F012
:10A78000FBFC0025A9F806507A8870494046FFF77F
:10A790008BFC044630B33946404601F013FD89F87E
:10A7A00009506DE7684B1B6813F0010364D1072261
:10A7B0001C4689F8092063E77B881A0A012A60D0C1
:10A7C000022A4FD17B78812B00F04381862B49D11F
:10A7D0000129A9D10B465E4A3946404601F00CFDDD
:10A7E0000028A1D1FF2389F80930002448E7012976
:10A7F0009AD1FB88012BF5D1B9F8062005EB020EA2
:10A8000039469EF803208DF800206A4601F0F4FCDA
:10A8100004460028E6D089F809A031E77B780A2BA6
:10A820000AD00B2B0FD0484B1B68DF077FF559AFC1
:10A8300000BE0723337722E7012900F0F3800023CD
:10A84000337701241CE70129F9D17A883146404643
:10A85000FFF758FD002800F0F9803946404601F026
:10A86000B1FCECE7384B1C6814F0010440F0D480D4
:10A87000072389F8093003E700BE072389F8093068
:10A88000FEE67B78812B00F00F81862B00F0FC80A8
:10A89000012BE7D1012900F00A8102297FF444AF9E
:10A8A0002C4B002B3FF440AF99F80A100020AFF377
:10A8B0000080B0FA80F489F809006409E0E67B784A
:10A8C000812B00F0D380862B7FF402AF0129B6D113
:10A8D0001F4A39464046012301F08EFC0028AED1C4
:10A8E000FF2333770024CBE6727F02B1737797F8AA
:10A8F00001C0BCF1010F00F0E8800CF17F03DBB276
:10A90000062B3FF6E5AEACF18104062C3FF6E0AE37
:10A91000DFE804F02C3C3C3C04663C0001298ED16D
:10A92000FB88022BDCD13024394640466A46ADF81C
:10A93000004001F061FC04460028D1D000233377A9
:10A940009EE600BF18740020F0ED00E00C730020BC
:10A95000B9780400000000007B78852BDED050D849
:10A96000012B00F0CB80812B7FF4B2AE01297FF464
:10A9700066AFFB88002BB3D0B64A39464046302339
:10A9800001F03AFC00287FF45AAFA9E701297FF4CF
:10A9900056AFFB88002BA3D0AE4CE94604F1300A39
:10A9A00020686168A268E368CE46AEE80F00103404
:10A9B0005445F146F4D19DF80210002940F0C380BF
:10A9C000BCF1830F00F0AA81BCF1870F00F08B81EE
:10A9D000BCF1820F00F087810823337700244FE613
:10A9E00001297FF42CAFFB88012B7FF479AF0B4654
:10A9F000994A3946404601F0FFFB00287FF41FAF1B
:10AA00006EE7862B7FF464AE01297FF418AFFB88D4
:10AA1000012B7FF465AFEBE700BE072389F809300F
:10AA200000242DE6FB88012B10D1F38873B11D445F
:10AA30004046EA788DF800200B466A46394601F018
:10AA4000DBFB044610B186F81C9019E6FF23337730
:10AA500015E601297FF468AE804A39464046012355
:10AA600001F0CAFB00287FF45FAEBBE601297FF44A
:10AA7000E6AE0B464046394606F11C0201F0BCFB2F
:10AA800000287FF4DCAE2BE701297FF44DAEFB8874
:10AA9000012B7FF4A7AE704A3946404601F0ACFB6B
:10AAA00000287FF441AE9DE601297FF43DAEFB888E
:10AAB000012B7FF497AE6A4A39464046012301F0E4
:10AAC0009BFB00287FF430AE8CE601293FF454AFA5
:10AAD00002297FF4B4AE5F49A1F11E00FFF734FBF9
:10AAE000044600287FF4ABAE08233377C8E55D4BFE
:10AAF0001B68DB077FF576AE00BE73E601293FF4E5
:10AB00003BAF02297FF49BAE5249A1F11E00FFF733
:10AB10001BFB04460028E7D0534B726BB2613BB17C
:10AB20004C4A71783078AFF3008000287FF487AE0C
:10AB30004E49002302204FF48072C6E90333088097
:10AB40007361B2839CE59DF80300002840F0928079
:10AB5000F288002A3ED0AB18AA5CB3F80D00444C32
:10AB6000104418441344984211D99A78102A0AD8EC
:10AB700024FA02F2D50706D5DA78914203D107E02C
:10AB80005A78242AEFD01A7813449842F8D803460A
:10AB9000BCF1830F5CD0BCF1870F4DD0BCF1820FAC
:10ABA0007FF41AAF01218DF803101A781A449042ED
:10ABB0000ED9947804F0FD05052D12D0112C03D187
:10ABC0000FE05478242CF2D0147822449042F8D824
:10ABD000024609E0234B1B68DA077FF5FDAE00BE95
:10ABE000FAE6D478A142EFD1997806291BD0102932
:10ABF00019D004297FF4F0AEB2F80510B2F807209E
:10AC00005B7D02FB01F203FB02F3DB08CDF812309F
:10AC10006A4639464046302301F0EEFA04460028E1
:10AC20007FF48CAE5CE6B2F80510B2F8073003FB97
:10AC300001F31B01DB08E9E79A78062A06D0102AFF
:10AC400002D0042A7FF4C8AE997DACE79979AAE7CF
:10AC50001979A8E736740020BA780400157300202B
:10AC600016730020F0ED00E00000000018730020D3
:10AC700050100100019B002BCAD1F288002AA9D0F4
:10AC8000AB1815F802E0B3F80D205A4D72449C1829
:10AC900073449C4211D99A78102A0AD825FA02F2F4
:10ACA000D20706D5DA78914203D107E05A78242AF0
:10ACB000EFD01A7813449C42F8D8234619781944E7
:10ACC0008C420ED98B7803F0FD02052A2ED0112B71
:10ACD00003D12BE04B78242BF2D00B7819448C4213
:10ACE000F8D8214625E001238DF8023001234FF0EA
:10ACF0000112029300230392ADF810304FF6C042C8
:10AD000040F29B13ADF81A20ADF81C303A4ACDF84A
:10AD10001E204FF40063ADF8223079E7F388002B52
:10AD2000E4D02B441B7B8DF80230DFE7CB789842D0
:10AD3000D3D1ACF18203052B3FF64EAE01A252F8FF
:10AD400023F000BFCBAD0200AFAD020085AD020025
:10AD5000D9A90200D9A902005DAD0200D1F81520E1
:10AD600042F21073B2FBF3F30192D2B1DDF812207C
:10AD70008BB9931CB3F5807F28BF4FF48073CDF857
:10AD8000163045E74B7E63B9D1F8222042F21073AA
:10AD9000B2FBF3F3E8E7013A1A44B2FBF3F30233F0
:10ADA000E8E70023ADF81630ADF8183030E74A7EFA
:10ADB000CAB1053201EB8202D2F80220D1F81A3072
:10ADC00042F21071B3FBF1F3CEE74A7E72B1053265
:10ADD00001EB8202D2F80230D1F81A2042F210714F
:10ADE000B3FBF1F3C0E7D1F81E20E7E7D1F81E303E
:10ADF000F2E700BF50100100030101012DE9F04FFF
:10AE0000374F83B03C8900905CB13B78354E03EB03
:10AE1000830203EB42020D46B258224492788A42E2
:10AE200008D0314B1B68DB0719D500BE002003B0EA
:10AE3000BDE8F08FD7E9042494420DD32B490022BA
:10AE4000C7E903227A6119B179781846AFF3008017
:10AE5000012003B0BDE8F08F01F002F918B900201D
:10AE600003B0BDE8F08FDFF888A0D7F814909AF807
:10AE700000003B69D7F818B0A0EB09089844C34517
:10AE80005C4628BF4446A04213D9174B1B6813F0F9
:10AE9000010301D000BE00230098154A294601F0A5
:10AEA000FFF80028D4D1104B1B68DA07D7D500BEB5
:10AEB000CFE7F968221A49445044019217F044FB45
:10AEC000019AC3454A447A6107D39AF8012042F0B7
:10AED0000202A3B28AF80120DEE7A3B2DCE700BFDA
:10AEE000187400200C730020F0ED00E0000000005A
:10AEF000187300202DE9F041B2F5004F9DF818803D
:10AF00002CD80446C06816460F461D4618B14FF0AF
:10AF1000FF310FF0EFFB206918B14FF0FF310FF058
:10AF2000E9FBC5F30E05E0682760002345EAC83554
:10AF30006381E580A680238118B11A4619460EF078
:10AF4000B1FF206938B100231A4619460EF0AAFF56
:10AF50000120BDE8F0810120BDE8F0810020BDE8BE
:10AF6000F08100BF03894289808892B29BB29342EC
:10AF700036BFC2EB40029B1A9B189BB2984228BF77
:10AF8000184670470289438990B29BB2C01AB0FA42
:10AF900080F04009704700BF03894289808892B2DF
:10AFA0009BB2934236BFC2EB40029B1A9B189BB2E6
:10AFB000984286BFC01A80B2002070472DE9F04742
:10AFC000054600698846914618B14FF0FF310FF0F1
:10AFD00091FB2B896C89AF889BB2A4B2A34236BF88
:10AFE000C4EB47061E1BF618B6B2002E4CD0B74273
:10AFF00042D34E4528BF4E46A742B6B203D8E41B03
:10B00000A4B2A742FBD9B5F8069029683B1B9BB2B6
:10B01000C9F30E029E42914602FB041126D913FB8E
:10B0200002F3F71B1FFA83FA3C445246404614FBD6
:10B0300009F417F089FA2968A2B208EB0A0017F0A0
:10B0400083FA6A89AF8892B293199BB29A421DD94A
:10B050007A009B1A9BB228696B8120B100231A46A3
:10B0600019460EF01FFF3046BDE8F08702FB06F2DE
:10B07000404617F069FAE4E7BB422CBFDC1BDC1941
:10B08000A4B26C813E46B4E76B899BB2B3EB470F29
:10B090004FEA4702DFDBDCE738B5044600690D46BE
:10B0A00018B14FF0FF310FF025FB22896389A18889
:10B0B00092B29BB29A4236BFC3EB4100D01A8018BD
:10B0C00080B200B3814209D28A422CBF531A53186E
:10B0D0009BB29942638103D85B1A9BB29942FBD918
:10B0E000E2882168C2F30E02284602FB031117F022
:10B0F0002BFA0125206920B100231A4619460EF0CB
:10B10000D1FE284638BD0546F4E700BF2DE9F04FD3
:10B11000154683B01AB30646C068894618B14FF089
:10B12000FF310FF0E7FAF279B6F808807389B78833
:10B13000D2091FFA88F89BB215D1984536BFC3EBE8
:10B140004703A8EB030343449BB29F422CD800253E
:10B15000F06820B100231A4619460EF0A3FE2846D7
:10B1600003B0BDE8F08FBD4250D2984536BFC3EB67
:10B170004702A8EB0302424492B279002A448A4271
:10B1800019DB03EB070A1FFA8AFAAAEB05081FFA74
:10B1900088F8434558D9A8EB01081FFA88F805EB51
:10B1A000080A1FFA8AFA0AE0FB1A9AB2954228BFE7
:10B1B0001546002DCCD005EB080A1FFA8AFA474540
:10B1C000444603D8E41BA4B2BC42FBD2F3883068E7
:10B1D000A7EB040B1FFA8BFBC3F30E02AB4502FB7C
:10B1E00004001CD302FB05F2494617F0ADF9B28802
:10B1F000C2454FEA420302D3BAEB420F03DBAAEB8C
:10B20000030A1FFA8AFAA6F808A0A1E7F188ED1B45
:10B21000C1F30E0101FB059998463D46C9E71BFBAA
:10B2200002FB1FFA8BFB019249465A4617F08CF934
:10B23000EF1B019B3068274417FB03F292B209EB26
:10B240000B0117F081F9D2E74145B8DCA3E700BF55
:10B2500010B50446C06818B14FF0FF310FF04AFA3C
:10B26000206918B14FF0FF310FF044FAE068002375
:10B270006381238118B11A4619460EF013FE206926
:10B2800020B100231A4619460EF00CFE012010BD15
:10B2900038B5C379B1EBD31F1FD00446C0680D4643
:10B2A00018B14FF0FF310FF025FA206918B14FF0B7
:10B2B000FF310FF01FFAE379E06865F3C713E3711C
:10B2C00020B100231A4619460EF0ECFD206920B18A
:10B2D00000231A4619460EF0E5FD012038BD00BFD7
:10B2E0002DE9F0411B4D1C4F2A781C4E002480464E
:10B2F00023460DE0336813EB441323D0DB6840464C
:10B3000098472A780134E4B2511DA142234606DB56
:10B31000A242A3EB0203EDD807EB4313EEE7104C78
:10B3200038222046002117F037F94FF0FF33C4E9E7
:10B330000233C4E90533C4E9073323616360A3849E
:10B34000BDE8F081074B1B68DB07F9D500BEBDE8FF
:10B35000F08100BF6C740020C8780400687400207D
:10B36000C0740020F0ED00E0704700BF704700BFE0
:10B370000020704700207047704700BF704700BF33
:10B38000704700BF704700BF024B5878003818BFA5
:10B3900001207047C0740020024B1878C0F3800071
:10B3A000704700BFC0740020024B1878FF3818BFE8
:10B3B000012070471C6100202DE9F047394F3B7890
:10B3C000FF2B82B04ED10D46002961D038220021DA
:10B3D0000646354817F0E0F8344B35494FF0000881
:10B3E000012083F800800EF00DFF324B186000281A
:10B3F0003DD0314C2346626833F80C0BCDF8008009
:10B4000061880EF0ABFCA16804460FF01FFB2B4BCC
:10B410001C6064B32A4B23B12A48AFF300802A4B47
:10B420001860DFF8A080DFF8A8A098F80020DFF807
:10B430009890002423460FE0D9F8003013EB441312
:10B4400015D05B689BB1984798F800200134E4B2AE
:10B45000511DA142234614DBA242EDD89B1A0AEBF0
:10B460004313EEE70125284602B0BDE8F087174BED
:10B470001B68DA0700D500BE0025284602B0BDE8EB
:10B48000F087294630463E7001F0A4FB054628B9F6
:10B490000E4B1B68DB07EFD500BEE4E7304601F03A
:10B4A0009BFBE0E71C610020C0740020C0750020F9
:10B4B00070740020F8740020C0600020FC7400202C
:10B4C000000000006C74002068740020F0ED00E0C3
:10B4D000C87804002DE9F04FDFF8208398F8003099
:10B4E000FF2B8DB031D004464FF47A7200238002D6
:10B4F000A10D16F0EDFD012838BF0120BA4DDFF88F
:10B500000093DFF800A38346661C286800F0CE8015
:10B51000002C14BF5A46002209A90EF08FFFA0B1DB
:10B520009DF82530013B072B00F2B483DFE803F0E0
:10B53000B3AAA1968E3D10040A9B0BB10B989847B5
:10B5400028680FF053FA0028DED10DB0BDE8F08F67
:10B550009DF82810A54B01F07F0603EB460303EB93
:10B56000D11393F826006FF3000083F8260093F8B8
:10B5700026006FF3820083F82600002E00F0A580DD
:10B580009B4A1B7D12789342C0F09280501D9842D6
:10B59000C0F294809B1A09EB43139E699DF8292001
:10B5A0000B9B9DF82400B047CAE7924A1378002B02
:10B5B00000F084801378013BDBB21370137803F042
:10B5C000FF00002BBCD1894E9DF82470337843F0E6
:10B5D0000103337096F8263060F3000386F82630B6
:10B5E00096F8263060F3820386F8263096F82730E6
:10B5F00060F3000386F8273096F8273060F3820363
:10B6000086F8273000F05CFE9DF8283003F06002D9
:10B61000602A0BD0402A00F0F78003F01F03012BB3
:10B6200000F0AD80022B79D0002B56D0724B1B68F6
:10B63000DE0700D500BE9DF82400002101F04AFD80
:10B640009DF82400802101F045FD79E7674B1B78C8
:10B65000D9077FF575AFFFF795FE71E7634B1A7851
:10B66000D0077FF56DAF1878C0F3C000FFF788FEF4
:10B6700066E75E4BDB78DA077FF562AF0A98FFF783
:10B6800075FE5DE79DF82400FFF72AFE00F00EFE30
:10B69000FFF774FE54E79DF82400FFF721FE00F049
:10B6A00005FE524B9DF828209A7049E7224633E761
:10B6B000DAF8002012EB43137FF46FAF4E4B1B6898
:10B6C000DC077FF542AF00BE3FE70B9B9DF82920CA
:10B6D0009DF8240000F006FE32E7202A00F0A38047
:10B6E000002AA3D19DF82930092B9FD801A252F836
:10B6F00023F000BF7BB902005FB902002DB6020043
:10B7000043B902002DB6020029B90200B3B9020004
:10B710002DB602009DB902004FB802009DF82C1012
:10B7200001F07F03082B81D806EB430000EBD1101A
:10B73000DFF8BCE090F814C09EF800000190C80942
:10B740000290019884454FEA430380F08181DAF842
:10B75000000000EB4C100190002A00F057810028F7
:10B760003FF469AF019E706900F0AAFD7369384625
:10B770000AAA0121984700287FF4E2AE5BE79DF812
:10B780002C300F2B3FF657AF3344194A1B791678EC
:10B79000B34280F05581DAF8006016EB43163FF4AF
:10B7A0004AAF706900F08CFD73690AAA012138461E
:10B7B000984700287FF4C4AE9DF8286016F0600614
:10B7C0007FF439AF9DF829300A3B012B3FF633AFA8
:10B7D00000F076FD9DF829300A2B0AA9384600F0C2
:10B7E000B38100F0EFFCABE6FC740020C0740020D5
:10B7F0006C740020C0750020F0ED00E01C6100209A
:10B80000C878040068740020BE4800283FF413AFD5
:10B8100000F056FD38460AAA0121FCF78FFE0028E9
:10B820007FF48EAE07E79DF82C300F2B3FF603AF69
:10B830003344B54A1B791678B34280F04881DAF870
:10B84000006016EB43163FF4F6AE70698CE79DF886
:10B850002A2073789A4200F044817378002B40F0DC
:10B8600092817270002A00F03A81501EC0B2FCF73B
:10B8700053FC002800F05B814378022B40F0578195
:10B88000C2793178C2F340131B01C2F3801221F058
:10B89000300143EA42130B43337043880697CDE9E6
:10B8A00001B4C318049300F10901049B8B4240F2D8
:10B8B0008E814B780B2B03BF0B7891F803B0C9181E
:10B8C0004FF0010B4B78042B40F02F81049B5A1A48
:10B8D0008D4B002792B21B78059203971CE0DAF893
:10B8E000004014EB471400F020812369059A069864
:10B8F000079198470828079907F10103024603D9E1
:10B900000598904280F0F280DFB27F4B03971B785E
:10B910005A1D974200F30981039ABB42A2EB03032D
:10B92000DDD809EB4314E0E70AA800F0CFFC9DF84E
:10B930002A10384601F056F9337843F00203337089
:10B94000FEE5BDF82A30012B7FF475AE337838461A
:10B9500043F008030AA9337000F034FCF0E5BDF8A9
:10B960002A30012B7FF467AE337838466FF3C30378
:10B970000AA9337000F026FCE2E533789E0806F051
:10B980000206C3F340131E43384602230DF1220280
:10B990000AA9ADF8226000F02FFCD1E573788DF88C
:10B9A0002230384601230DF122020AA900F024FCBE
:10B9B000C6E5BDF82A00030A5A1EC0B20E2A3FF699
:10B9C0003AAE01A151F822F019BC020009BC0200F4
:10B9D000F9BB020037B6020037B60200DBBB02003B
:10B9E00009BC020037B6020037B6020037B60200C3
:10B9F00037B6020037B6020037B6020037B602008B
:10BA0000A9BB0200002A7FF416AE01929DF82920FE
:10BA100002F0FD00012827D0002A7FF407AE029A29
:10BA200033441344384693F826600DF12202C6F3DE
:10BA3000400602230AA9ADF8226000F0DDFB7FE595
:10BA4000721D9A42FFF6F7AD9B1B09EB4316A8E661
:10BA500000F1050EE645D5DBACEB000009EB40102C
:10BA60000190002AD2D07DE6BDF82A000390B0B93B
:10BA7000012A71D098F80000039301F02BFB039B7F
:10BA8000029A3344134493F8262042F0020283F8CA
:10BA9000262093F8262042F0010283F82620019BFD
:10BAA000002B3FF44DAD586900F00AFC019B0AAA37
:10BAB0005B69012138469847002000F001FC96F8A8
:10BAC0002730DB073FF53CAD0AA9384689E6721DF1
:10BAD0009A42FFF6B0AD9B1B09EB4316B5E6FFF7A4
